S012000050574D436F6E74726F6C2E737265633D
S11300000C94FE000C940A010C940A010C940A014D
S11300100C940A010C940A010C940A010C940A0130
S11300200C940A010C940A010C940A010C940A0120
S11300300C940A010C940A010C940A010C940A0110
S11300400C940A010C940A010C940A010C940A0100
S11300500C940A010C940A010C940A010C940A01F0
S11300600C940A010C940A010C940A010C940A01E0
S11300700C940A010C940A010C940A010C940A01D0
S11300800C940A010C940A010C940A010C940A01C0
S11300900C940A010C940A010C940A010C940A01B0
S11300A00C940A010C940A010C940A010C940A01A0
S11300B00C940A010C940A010C940A010C940A0190
S11300C00C940A010C940A010C940A010C940A0180
S11300D00C940A010C940A010C940A010C940A0170
S11300E00C940A010C940A010C940A010C940A0160
S11300F00C940A010C940A010C940A010C940A0150
S11301000C940A010C940A010C940A010C940A013F
S11301100C940A010C940A010C940A010C940A012F
S11301200C940A010C940A010C940A010C940A011F
S11301300C940A010C940A010C940A010C940A010F
S11301400C940A010C940A010C940A010C940A01FF
S11301500C940A010C940A010C940A010C940A01EF
S11301600C940A010C940A010C940A010C940A01DF
S11301700C940A010C940A010C940A010C940A01CF
S11301800C940A010C940A010C940A010C940A01BF
S11301900C940A010C940A010C940A010C940A01AF
S11301A00C940A010C940A010C940A010C940A019F
S11301B00C940A010C940A010C940A010C940A018F
S11301C00C940A010C940A010C940A010C940A017F
S11301D00C940A010C940A010C940A010C940A016F
S11301E00C940A010C940A010C940A010C940A015F
S11301F00C940A010C940A010C940A0111241FBEE8
S1130200CFEFCDBFDFE5DEBF00E00CBF0E943501BC
S11302100C9481010C940000E0E5F0E083EC82830F
S113022088E08083818183FFFDCFE0E5F0E083EC0B
S11302308583808180618083818184FFFDCF88ED07
S113024084BF84E080934000089581E08093410658
S1130250E0E0F8E0808383E1818380E686AB89E097
S113026087AB10AE88E081AF08950E940C010E9414
S11302702501E0E8F6E088E0818384E0818342E0C0
S113028050E0E1E0F0E008EE13E0C0E0D8E00F2E2B
S1130290F2E3FF2EF02D4F5F5F4F9A0136952795BD
S11302A03695279536952795A5ECB0E20E94720104
S11302B0929582958F7089279F708927809F9001DE
S11302C0819F300D909F300D11244217530719F769
S11302D03196EF3589E0F80710F0E0E0F0E0F8AE91
S11302E019AED9CFA29FB001B39FC001A39F700DD7
S11302F0811D1124911DB29F700D811D1124911D2A
S10903000895F894FFCFFC
S9030000FC
